:020000040800F2
:10000000F8FF0724FDFA0608DF620608CD6206083D
:10001000E1620608F16206080163060800000000BC
:10002000000000000000000000000000116306084E
:100030001363060800000000D97206081173060851
:1000400045F90608F1630608036406080964060812
:10005000BDE2060845F90608856306088B630608B5
:1000600091630608976306089D630608F9950608DC
:10007000099606081996060829960608399606086C
:10008000499606085996060845F90608A5B00608D7
:1000900045F90608ABB0060845F90608A36306084B
:1000A0001D6406082F6406082364060829640608F0
:1000B00033640608396406083F64060845F90608F3
:1000C00045F9060845F9060845F906084D99060858
:1000D000599906089F640608A5640608AB640608DB
:1000E000C7630608F7630608000000006964060895
:1000F0006F64060887640608816406086996060826
:1001000045F90608B5EB06084564060845F90608F2
:10011000B1640608B76406085D64060863640608EF
:10012000799606088996060899960608A9960608FB
:10013000B996060845F90608FD63060845F906085C
:1001400000000000000000000000000000000000AF
:10015000C9960608D9960608E9960608BD640608F9
:1001600045F9060845F9060845F9060845F906085F
:1001700045F9060845F9060845F90608000000009B
:1001800045F9060845F90608C3640608C964060867
:100190006599060845F906087199060845F90608A3
:1001A00045F9060845F9060845F9060845F906081F
:1001B00045F9060845F9060845F9060845F906080F
:1001C00045F9060845F9060845F9060845F90608FF
:1001D000216306081563060845F9060845F906086F
:1001E00045F9060845F9060845F9060845F90608DF
:1001F00045F9060845F9060845F9060845F90608CF
:1002000045F9060845F9060845F9060845F90608BE
:100210008D640608936406089964060845F9060883
:1002200045F9060845F9060845F9060800000000EA
:1002300045F9060845F906080000000045F90608DA
:1002400045F9060845F9060845F9060845F906087E
:1002500045F9060845F9060845F9060845F906086E
:1002600045F9060845F9060845F9060845F906085E
:1002700045F9060845F9060845F90608000000009A
:1002800045F9060845F9060845F90608000000008A
:100290000000000045F9060842884378007843EAE8
:1002A000022340EA032070470B0A017043700B0CD5
:1002B000090E8370C1707047036A0239023B99428C
:1002C0003DBFC389406B01FB03000020704702461D
:1002D00000F10B010020C30143EA500312F8010BA7
:1002E00050FA83F38A42D8B2F5D1704737B50D463C
:1002F000044620B9092000232B6003B030BD0368F9
:10030000002BF7D05A79002AF4D081885A8991427B
:10031000F0D10DF107020621186802F00BFB00284E
:10032000E8D19DF8070010F00100E3D12368E3E76E
:1003300038B50368044618785D1C20B140F2B51149
:1003400088F08CFC08B1256038BD4FF0FF3038BD17
:100350000328CA7E8B7E08BF487D43EA022302BF82
:100360000A7D42EA002243EA024318467047C2F37C
:1003700007238A76CB760378032B01BF120C0A750C
:10038000120A4A75704770B5C37904460BB900204C
:1003900070BD00F13C06826B01230068314602F01B
:1003A000B4FA80B9A16BE36A626ACB1AE071934236
:1003B000EDD2A379022BEAD10A4401233146206809
:1003C00002F0A3FAE3E7012070BDF8B50446FFF799
:1003D000DAFF0546002842D16379032B37D1277A0B
:1003E000012F34D104F13C0601464FF4007230462F
:1003F00060F0F6F955234122722184F83A32AA239B
:1004000084F83F2004F5097084F83B32522384F8C5
:10041000222284F83C3084F83D30612384F8201295
:1004200084F83E3084F8233284F82112A169FFF762
:100430003BFF616904F50A70FFF736FFA26A3B468D
:10044000314601322068A26302F05FFA2572002271
:100450002068114602F06EFA003018BF0120F8BD86
:10046000836B8B4270B506460D4612D0FFF78BFFAB
:10047000044660B92A46012306F13C01306802F0C7
:1004800035FA00281CBF4FF0FF350124B563204624
:1004900070BD0024FBE70000002310B5C3714FF0CE
:1004A000FF3304468363FFF7DBFF18BB94F83B225E
:1004B00094F83A3243EA02234AF6552293421BD17A
:1004C00094F83C30EB2B03D01833DBB2012B15D85A
:1004D00003220B4904F1720060F096F978B105220D
:1004E000084904F18E0060F08FF9002814BF022043
:1004F000002010BD042010BD032010BD022010BD3F
:1005000073B20B0877B20B082DE9F041437986B03E
:10051000044601F0FE059BB10DF1070206210068BB
:1005200002F008FA9DF80700C60709D4002D00F074
:10053000BF8010F0040000D00A2006B0BDE8F081B2
:10054000002305210DF107022068637102F0F2F922
:100550009DF80730D90700F1AD800DB15A07EBD4F3
:1005600000212046FFF798FF0228034603D0012808
:1005700029D8257975B304F20225002102AF15F8B8
:10058000040C10B12846FFF787FE47F8210001311F
:1005900010350429F3D1267906B1013E57F82650CB
:1005A00055B129462046FFF777FF034622792AB145
:1005B000042B0BD10120C0E70323F7E7012B09D956
:1005C0000136032EEAD9042B02D1F3E7012B01D91E
:1005D0000D20B2E794F8482094F8473043EA02230C
:1005E000B3F5007FF4D194F8533094F8526056EA92
:1005F000032604D104F16000FFF74EFE064694F88E
:100600004C1066624B1EA171012BE1D894F8498011
:100610001FFA88F3E381002BDAD008F1FF3313EAE5
:10062000080FD5D194F84E3094F84D7047EA03275F
:100630003B07A781CCD194F8503094F84F0050EA92
:10064000032003D104F15C00FFF726FE94F84B2051
:1006500094F84A3053EA0223BAD006FB01FE03EBBA
:10066000171272448242B3D8801A4749B0FBF8F09F
:1006700000F1FF3C8C45ABD84FF6F5712B442A4472
:10068000884200F102011ED840F6F57C2162A56285
:100690006045E36262630FD8002F99D0734401274D
:1006A000236301EB410301F0010101EB530120E061
:1006B000284642E7032040E7002F89D073444900D1
:1006C0000227236315E0E362626394F8663094F8CE
:1006D0006720216253EA0223A5627FF479AF002FDD
:1006E0007FF476AF04F168000327FFF7D5FD2063A0
:1006F000890001F2FF11B6EB512FFFF469AF4FF003
:10070000FF33032FA36163614FF0800323722FD166
:1007100094F86D2094F86C3043EA0223012B27D122
:10072000691C2046FFF79CFE10BB94F83B2294F80E
:100730003A32207243EA02234AF65522934217D1F5
:1007400004F13C00FFF7A8FD104B984210D104F5CE
:100750000870FFF7A1FD0E4B984209D104F509700E
:10076000FFF79AFDA06104F50A70FFF795FD60613F
:10077000084A002067711388E06101339BB213803F
:100780006381054B2361D8E6F4FFFF0F52526141AC
:1007900072724161B42B0024B62B002401292DE98B
:1007A000F04705460C46174673D9036A994270D242
:1007B0004379022B40D0032B51D0012B69D101EB9F
:1007C0005108C16A01EB5821FFF74AFE064640BBBB
:1007D00014F0010405F13C0908F1010AC8F3080806
:1007E00008BFFBB228461FBF19F8083003F00F02FC
:1007F0003B0103F0F00318BF134309F8083001234D
:10080000E96AEB7101EB5A21FFF72AFE064640B96F
:10081000CAF3080A44B1C7F3071709F80A7001239D
:10082000EB713046BDE8F08719F80A30C7F30327AB
:1008300023F00F031F43F0E7C16A01EB1421FFF718
:100840000FFE06460028ECD1640005F13C0304F4D9
:10085000FF741F551A19C7F307275770DFE7C16ADE
:1008600001EBD411FFF7FCFD06460028D9D1A40006
:1008700005F13C0327F0704704F4FE741C44204645
:10088000FFF70AFD00F0704120463943FFF70CFDE9
:10089000C5E70226C5E70129F8B505460C4652D939
:1008A000036A99424FD24379022B29D0032B38D0C7
:1008B000012B48D101EB5106C16A01EB5621FFF72C
:1008C000CFFD10B14FF0FF30F8BD771CC6F308061E
:1008D000E96A28462E4401EB572196F83C60FFF761
:1008E000BFFD0028EED1C7F30807E3073D4495F8A4
:1008F0003C0046EA00204CBF0009C0F30B00F8BDE5
:10090000C16A01EB1421FFF7ABFD0028DAD16400C6
:100910003C3504F4FF742B19285D5B7840EA032012
:10092000F8BDC16A01EBD411FFF79AFD0028C9D1C7
:10093000A40005F13C0004F4FE742044FFF7ACFC75
:1009400020F07040F8BD0120F8BDB1F5001FF8B5EA
:1009500006460D4601D30220F8BDCA06FBD18268C7
:1009600004683161C2B96379022B01D9236BA3B941
:10097000A389B3EB551FEED9236BB361B3697261E1
:10098000002BE8D003EB55233C34C5F308050020C9
:10099000B3612C44F461F8BD1346E7891A467F021F
:1009A000BD42114604D22046FFF786FCB061E5E760
:1009B0003068FFF770FF431C024606D00128CAD9F1
:1009C000236A9842C7D2ED1BEAE70120F8BD2DE962
:1009D000F041804605680F4649B96E69CEB12B6A71
:1009E0009E4228BF0126AB69ABB9002409E0284626
:1009F000FFF751FF0128044658D9421C04D14FF09B
:100A0000FF342046BDE8F0812B6A9842F9D33E4678
:100A1000E9E70126E7E7BE4215D12B6A741CD8F836
:100A200000009C4228BF02242146FFF734FF012822
:100A30003CD0431CE3D0D8B16B69012B03D92A6A9F
:100A4000934238BF1E46344601342B6A9C4202D37F
:100A5000012ECAD902242146D8F80000FFF71BFF57
:100A600040B1012822D00130C9D0B442ECD1BCE75A
:100A7000002CE8D04FF0FF3221462846FFF78EFECB
:100A800090B957B92A6AAB69023A6C6193420FD99F
:100A90002B7A43F001032B72B3E7224639462846EE
:100AA000FFF77CFE0028EDD00128A8D00124A8E79C
:100AB000013BAB61ECE7F8B50D4607461146012D49
:100AC00001D80220F8BD0468236A9D42F9D22AB1F8
:100AD0004FF0FF322046FFF761FE08BB2946386819
:100AE000FFF7D9FE064608B90020F8BD0128E8D076
:100AF000431C14D0002229462046FFF74FFE78B948
:100B0000226AA369911E8B4205D20133A361237A25
:100B100043F00103237296423546DFD3E4E7012018
:100B2000F8BDF8B505460E46FFF72DFC0446F8B9AA
:100B3000314605F13C062846FFF7BEFB4FF4007234
:100B40000746A863214630465FF04AFEEB899C4287
:100B500004D3E889001B18BF0120F8BD01233A190E
:100B60003146286801F0D1FE0028F2D10134EDE7CA
:100B70000120F8BD2DE9F843076904468946056858
:100B80002037B7F5001F24BF00238361836973B149
:100B9000C7F30808B8F1000F3BD101334169836105
:100BA00041B9AB89B3EB571F33D80023A3610420AD
:100BB000BDE8F883EB89013B13EA572329D1284686
:100BC000FFF769FE0128064602D80220BDE8F88337
:100BD000421C02D10120BDE8F8832B6A984212D34F
:100BE000B9F1000FE1D061692046FFF7F0FE06463B
:100BF000B0B10128E9D0431CECD001462846FFF7EC
:100C000090FF0028E6D1666131462846FFF754FB85
:100C1000A0613C35276100204544E561BDE8F883CB
:100C20000720BDE8F883F8B50F46002104460668A2
:100C3000FFF78BFEA8B90546A1693046FFF710FC07
:100C400078B9E3691B78E52B00D01BB90135BD42AB
:100C500001D1F8BD054601212046FFF78BFF002892
:100C6000EAD0042808BF0720F8BD00002DE9F84F9E
:100C70004FF0FF0A81460E46056854464FF0040BBC
:100C8000474F4FF6FF78D9F8181019B9BBF1000F8C
:100C900076D06CE02846FFF7E3FB8346002866D158
:100CA000D9F81C000278002A76D0C37AE52A03F02E
:100CB0003F0389F8063052D02E2A50D023F020016D
:100CC000A1F1080CDCF1000141EB0C01B14246D16D
:100CD0000F2B50D151063CD5D9F8103002F0BF028D
:100CE000417BC9F82C3090F80DA08A4552D1C17EC5
:100CF000837E43EA01231BB28BBB01780D24D5F818
:100D000010E04FF0010C21F0400101396143DC5D3E
:100D100000EB040B045D9BF801B044EA0B24BCF12A
:100D2000000F1AD0FF291AD82EF81140A44601311D
:100D300001330D2BEBD103785B0607D5BCF1000F17
:100D400004D0FF290BD800232EF81130541EE4B232
:100D500006E0944203D15146C5E74445E8D0FF245C
:100D600000214846FFF706FF834600288BD000236A
:100D7000C9F8183006E044B9FFF7A9FA824504D152
:100D80004FF0000B5846BDE8F88F4FF0FF33C9F81D
:100D90002C30F7E78A46E2E74FF0040BE7E700BFA5
:100DA00054B20B08C16A4B1C2DE9F041044605689A
:100DB000066918D1E5274FF00108A1692846FFF719
:100DC0004FFB60B9E3691F7085F8078023699E4275
:100DD0000DD901462046FFF7CDFE0028EDD00428AE
:100DE00008BF022003E0FFF7B0FD0028E2D0BDE815
:100DF000F08100002DE9F04F002185B00446D0F8C5
:100E000000A0FFF7A2FD8046002840F094804FF03C
:100E1000FF094FF0FF334E46E362A1695046FFF7EA
:100E20001FFB8046002840F08680E5692F78002F60
:100E300000F08780EA7AE52F02F03F03A37103D028
:100E4000120705D50F2B05D04FF0FF33E36257E0B3
:100E50000F2B5ED194F82B30580652D4790647D523
:100E6000226907F0BF076B7BE26295F80D90994508
:100E700065D1EB7EAE7E46EA032636B2002E3FD128
:100E800095F800800121DAF810B008F03F0808F169
:100E9000FF334FF00D0808FB03F82B4BF25CAB1847
:100EA0005878AB5C43EA002331B3B8F1FF0F27D881
:100EB0001846039387F0E6FE08F1010202903BF822
:100EC0001800019287F0DEFE0299814218D1039B3F
:100ED000019A1946904601360D2EDED12B785A061E
:100EE00003D511B13BF8183053B9013FFEB208E009
:100EF000BE4205D14B46B8E74FF6FF729342EAD0A7
:100F0000FF2600212046FFF735FE8046002884D0CA
:100F100011E026B92846FFF7DAF981450BD094F89D
:100F20002B30DB0790D40B2204F1200128465FF020
:100F30006BFC002888D1404605B0BDE8F08F99468B
:100F4000DEE74FF00408F6E754B20B082DE9F04F46
:100F500090F82BB089B005461BF0A0047ED107683D
:100F60003A6932F81430002B5AD105F120060DF100
:100F700014091BF0010F96E8070089E8070074D0F8
:100F800040234FF0010885F82B30B6463B69B8F195
:100F9000050F99E80700AEE803002EF8022B4FEA90
:100FA00012428EF8002052D84246072102F00F0E5E
:100FB000013903AB0EF13000392888BF0EF137003C
:100FC00003EB010E12098EF80100EFD108AB4FF0D0
:100FD0007E0E581800F814EC91423DD0B05C2028E9
:100FE00038D13244072997BF08AB20205818013167
:100FF00098BF10F8140C02F8010B901B0728F1D9C8
:101000002846FFF7F7FE824658BB08F10108B8F101
:10101000640FBAD14FF0070A504609B0BDE8F08F0F
:1010200001349EE74FF0100E01F0010C49080CEB63
:101030004202D30344BF82F4883282F02102BEF11F
:10104000010EF1D130F8021F0029EBD1ADE7981E57
:101050004246F7E70132BFE70A46C2E74FF0060A09
:10106000DAE70428D8D185F82BB01BF0020F284608
:101070001BBF0C340D230124B4FBF3F418BF01345F
:101080002146FFF7D0FD82460028C5D1013C56D04D
:1010900029692846A1EB4411FFF757FC8246002836
:1010A000BAD130464FF6FF79FFF711F98046A969AA
:1010B0003846FFF7D5F982460028ADD1EB690F22FB
:1010C000E1B2D7F810C04FF00D0EDA724A1E83F865
:1010D0000D8018730EFB02F286469876D876019240
:1010E00048451FBF019A3CF8120001320192234A81
:1010F0001EF802A00EF1010E03F80A0003EB0A0B22
:101100004FEA102A002808BF4846BEF10D0F8BF8A1
:1011100001A0E5D1484503D0019A3CF812200AB954
:1011200041F040011970012300212846FB71FFF7AF
:1011300021FD824600287FF46FAF013CB7D1A96939
:101140003846FFF78DF9824600287FF465AF2022EC
:101150005146E8695FF044FBEB6903CE18605960C3
:10116000B27831889A72198195F82B30EA6903F0C8
:10117000180313730123FB714EE700BF54B20B0831
:101180002DE9F0470026D0F8009007460C468E75F2
:101190008369002B00F09780C36A01330ED0B046FC
:1011A0003546D9F81030985B002843D1B8F1000FCC
:1011B0004FF0000318BF00252544AB75F8690023E4
:1011C0002E26451E194615F8012F0131202A10D070
:1011D000052A08BFE522092906D10B2B9EBF04EB87
:1011E000030E01338EF8096004EB030E01338EF811
:1011F00009200B29E7D1E21800215172A27D002AB3
:101200004DD1002B42D004F109010825134611F8F5
:10121000012B002A3DD092B22E2AA2F1410608BF2E
:101220001025192E03D8067B354218BF20320A73C9
:101230000133ECE7B8F1000F05D100F520539BB264
:10124000B3F5006F13D340F2B51140EA084087F0C0
:10125000E5FCFF28C5F1FF0A0CD9BAF1010F11D93D
:101260006319020AD8759A7502231D4400200236BC
:10127000804696E730B1BAF1000F05D06319987532
:101280000123F2E7002591E755468FE73F23A37539
:101290000123234400229A75037B03B96372F96921
:1012A000CB7A01F11C002372FEF7F6FF2060CA7DA5
:1012B0008B7D43EA0223E3804A7E0B7E43EA0223CE
:1012C000A380BDE8F087BDE8F08700002DE9F04F6E
:1012D000036887B00646894601930B782F2B01D00F
:1012E0005C2B09D14A461378914601322F2BFAD054
:1012F0005C2BF8D0002301E0019BDB69B36099F817
:1013000000301F2B00F2948080230021304686F8A5
:101310002B30FFF71AFB07B0BDE8F08FFE2D00F26F
:10132000B0802AF81530013588E009F101020592F4
:10133000DDF8149099F800202F2AF6D05C2AF4D01A
:101340001F2B8CBF00240424012D3ED1BAF800309D
:101350002E2B41D00AEB4503002D40F09480002352
:101360000AEB45022AF81530002D00F08A803AF881
:101370001310202900F090800BB92E2902D144F0DF
:101380000304E4B232F8021D2E2901D0013DF9D147
:101390004FF000084FF020314FF0080B47467162C4
:1013A0003162C6F827103AF813005A1C002800F0E2
:1013B000E880202804D02E2870D1AA4200F0D780DF
:1013C00044F00304E4B21346EDE7022DC2D1BAF8AB
:1013D00002302E2BBED1B9E7002306F120022AF8F5
:1013E00015309D4294BF20212E2101330B2B02F892
:1013F000011BF6D144F0200486F82B403046FFF75D
:10140000F9FC96F82B30002840F09B805A0782D4D4
:10141000B379DB0640F1A980019B03F13C013369FC
:10142000C3F308031944019B5879FEF791FFB0609C
:1014300033680025CDF81490D3F810A005A8FEF766
:1014400077FF471C1DD0B0F5803F24BF030C2AF85E
:10145000153083B228BF01351F2B7FF669AF2F2BC4
:101460003FF466AF5C2B3FF463AF7F2B3FF656AF84
:1014700018465F4911F8012F002A3FF44FAF904200
:10148000F8D1062047E733F8022D202A02D02E2A71
:101490007FF465AF013D5FE7013368E7D84568D267
:1014A000AA4211D1BBF10B0F06D165E0AA4203D0CD
:1014B00044F00304E4B264D8BF002A464FF00B0B9B
:1014C0004FF00808FFB27EE77F2838D944F00203C6
:1014D00040F2B5110392DBB2029387F09FFB10F04C
:1014E000800F029B039A10D000F07F004149085CF6
:1014F00030B1414C14F8011F002967D08142F9D165
:1015000043F003035F20DBB211E0FF28F0D90BF1B9
:10151000FF31884504D344F00304D846E4B252E7CF
:1015200006EB0801040A08F1010881F8204006EBE7
:1015300008011C4608F1010881F8200043E7234612
:10154000D7E704287FF4E7AE13F0200F03F004037D
:1015500007D0002B3FF46CAF8023002086F82B309F
:10156000D9E6002B08BF0520D5E60520D3E6D845EF
:1015700098D3BBF10B0F99D144F003044FF00B0B40
:10158000E4B296F82030E52B04BF052386F820301E
:10159000BBF1080F04BFBF00FFB207F00C030C2B18
:1015A00003D007F00303032B02D144F00204E4B29A
:1015B000A5073FF521AFF80744BF44F01004E4B29B
:1015C000790744BF44F00804E4B215E7A0F14101F3
:1015D00089B2192901D847F00207A0F1610189B247
:1015E00019299EBF203847F0010780B29FE700BF4E
:1015F000CDB20B08D4B10B08D6B20B080021417153
:10160000FEF782BF2DE9F04705468CB091461F4694
:101610000C46002900F0BB8003F03F063146FEF780
:1016200073FF002840F0B5800DF13008494648F8B6
:10163000305D4046FFF74AFE024620B99DF92B3047
:10164000002BB8BF062217F01C0F6DD05AB1042A28
:1016500003D14046FFF77AFC024646F0080652B135
:10166000002323605CE09DF8063013F0110F65D174
:10167000780700F19080310732D5DDF81CA0A9462B
:10168000514619F8050FFEF763FE07466DF0CEFAD6
:1016900001460AF10E00FEF707FE079B202248468E
:1016A000DA7200220799FEF762FE079B00221A7782
:1016B0005A779A77DA770123EB718FB13946404632
:1016C000D5F83890FFF7F7F902460028C8D1013F56
:1016D00049462846FEF7C4FE6F6102460028BFD186
:1016E000AB6B3107079F236248BF46F04006676235
:1016F00039466879FEF72CFE0146A06007F11C0010
:10170000FEF7CAFD6B89B2060746A3804FF00003BF
:10171000E060256026746374E361636110D4002285
:1017200010460CB0BDE8F087002A99D19DF806302C
:10173000DA0632D4BF07D3D5D807D1D507228FE731
:101740000028ECD0EE8960617602BE4201D300220F
:101750000BE02068FFF79FF80128014615D9431CCC
:101760005A425A41BF1B002AEFD0A161002A7FF4E0
:1017700077AFC7F30803002BD1D02846FEF79CFDB6
:1017800068B100EB5720E061CAE70222EAE70922CC
:10179000C6E7024664E7082262E7042260E7022205
:1017A0005EE72DE9F04F994685B00023884603A9EE
:1017B0000446C9F800301546FEF798FD0646E0B924
:1017C000667CD6B9237CDA0779D5E3686769DF1BC5
:1017D000AF4228BF2F4687B16269C2F30803002BCE
:1017E00054D1039BDB89013B13EA522A13D142B93E
:1017F000A06801280AD802266674304605B0BDE804
:10180000F08FA1692068FFF746F8F2E7431C01D189
:101810000126F1E7A061DDF80CB0A1695846FEF79A
:101820004BFD0028E7D00AEB00037D0A01932BD083
:10183000BBF80E200AEB0501DBF80000914241469F
:1018400088BFA2EB0A05019A2B4601F04FF8002849
:10185000DED10399CB795BB1886B019BC01A8542BD
:1018600006D94FF400723C3108EB40205EF074FF63
:101870006D02D9F800307F1BA8442B44C9F8003012
:1018800063691D446561A6E7019BE3616569E169E0
:10189000C5F308050398C5F50075BD4228BF3D4650
:1018A000FEF7DEFD0028B3D103992A46636940465E
:1018B0003C31C3F3080319445EF04EFFD9E7072615
:1018C0009BE72DE9F04F9B4685B00023884603A98E
:1018D0000446CBF800301746FEF708FD064610BB5D
:1018E000667C06BB237C9A0740F1A7806369FB42B4
:1018F00000D3DF439FB16369C3F30802002A7FD19D
:10190000039AD289013A12EA532201921ED173B985
:10191000A06870B901462046FFF759F848B9237C02
:1019200043F040032374304605B0BDE8F08FA16951
:10193000F1E7012802D102266674F4E7431C01D1C5
:101940000126F9E7A368A06103B9A0600398E369E1
:10195000826B9A4203D1FEF716FD0028F0D1DDF824
:101960000CA0A1695046FEF7A7FC0028E3D0019B1C
:101970007D0A03EB000935D0019A4146BAF80E30D2
:101980002A44DAF800009A4284BF019A9D1A4A4616
:101990002B4600F0BAFF0028D2D1DDF80CA0DAF80F
:1019A0003810A1EB09018D420BD901904FF4007260
:1019B00008EB41210AF13C005EF0CEFE019B8AF863
:1019C00007306D02DBF800307F1BA8442B44CBF8B6
:1019D000003063691D44E3686561AB422CBFE3607E
:1019E000E56087E76269E3689A4207D35046FEF7ED
:1019F000CAFC0028A4D1039BC3F83890C4F81C90FB
:101A00006569E169C5F308050398C5F50075BD4230
:101A100028BF3D46FEF724FD002891D103982A46B1
:101A2000636941463C30C3F3080318445EF094FEFA
:101A3000039B4FF00102DA71C4E7072673E7F7B59D
:101A400001A90446FEF752FC054660BB237C5B06F9
:101A500029D56DF0EBF8216A07460198FEF700FDE5
:101A6000054600BB666AF37A314643F02003F37201
:101A70002068A2680530FEF77AFCE16806F11C00D8
:101A8000FEF712FC394606F11600FEF70DFC0123A5
:101A90000198B574F574C371FEF797FC237C054675
:101AA00023F040032374284603B0F0BD13B5044669
:101AB000FFF7C5FF28B901A92046FEF717FC00B9BA
:101AC000206002B010BD70B50E468CB000210546F6
:101AD000FEF71AFD044668B90CA8314640F8305D9F
:101AE000FFF7F4FB044690B99DF92B30002B04DA84
:101AF000029BEB6120460CB070BD9DF80630DB0602
:101B000009D507996879FEF723FCE861F2E7042814
:101B100008BF0524EEE70524ECE72DE9F0470C4665
:101B20000021D2B0814621709046FEF7EDFC0746B9
:101B3000C0B9D9F81C304646CDF800900293DDF8C4
:101B400008A0BAF1000F13D1464502D1013E2F2360
:101B5000A355A319361B13F8012B04F8012BA21966
:101B60004245F8D300233846237052B0BDE8F087D1
:101B700020216846FEF7E9FE002848D1069948462C
:101B8000FEF76EFC054600283FD1079999F805003D
:101B9000FEF7DEFB294602906846FEF7D6FEB0BB94
:101BA00000216846FFF762F80546A0BB079999F83F
:101BB0000500FEF7CDFB824514D10CA96846FFF75E
:101BC000DFFA29460CAB0B449A7D4B1CAAB99E4206
:101BD0001FD3721A0B4622448BB9C9432F230E44DC
:101BE000A355ACE729466846FEF7C4FF0028D7D0C6
:101BF0000746042F08BF0227B4E71946E2E7013B76
:101C00000CA81844807DD054E6E70746AAE70746AB
:101C1000A8E71127A6E70746EBE7F7B50D4601A9A8
:101C20000446FEF763FB064600284FD1667C002E73
:101C30004CD1E368AB4204D2227C12F0020F08BF01
:101C40001D460022636962619DB9284609E00020B3
:101C5000E36865699D4281BF237CE56043F04003F2
:101C60002374C5F308058DB3E36983422ED0E06188
:101C70002CE0019AD7897F02F3B1013B6A1EB3FBC6
:101C8000F7F1B2FBF7F28A4216D37A42A169134008
:101C9000ED1A63610029DAD0BD4221D863692B4473
:101CA0006361C5F30803002BD1D00198FEF704FB54
:101CB00050B100EB5520CBE7A16879B92046FEF77B
:101CC00086FE0128014604D102266674304603B020
:101CD000F0BD013001D10126F7E7A160A161D9E78C
:101CE0006369ED1B3B446361237C9A0706D520465C
:101CF000FEF76DFE014628B90546CFE72068FEF7DE
:101D0000CAFD01464B1CE6D00129DDD9019B1B6AA7
:101D10009942D9D2A161BFE770B5054616460C4677
:101D200021B30021FEF7F0FB68B92560314620465B
:101D3000FFF7CCFAE0B994F92B30002B0BDBA37939
:101D4000DB0603D405200023236070BD6879E169B8
:101D5000FEF7FEFAA0606B8900212046A380FEF703
:101D6000F4FD0428EED00028EDD170BD092070BD2F
:101D70000428E7D0E7E713B501A90446FEF7B6FA51
:101D800000B9206002B010BD73B50D4601A904462C
:101D9000FEF7ACFA20B9014620461DB9FEF7D5FD85
:101DA00002B070BDFEF762FF10F0FB06F8D12946C5
:101DB0002046FFF7E5F931462046FEF7DBFE042812
:101DC00008BF0020ECE770B504468CB00E46002139
:101DD0001546FEF799FB0094044670B931466846F3
:101DE000FFF774FA044640B99DF92B30002B07DB4E
:101DF0001DB129466846FFF7C3F920460CB070BDF7
:101E00000624FAE72DE9F84F0F4600210446FEF7B5
:101E10007BFB064638B9D4F82090A369A9F10202E9
:101E2000934203D83B603046BDE8F88F6379012BBD
:101E300019D10225804629462046FEF72CFD431C79
:101E40003DD001283DD008B908F101080135236AC9
:101E50009D42F0D3C7F80080237AC4F8188043F07D
:101E600001032372DFE7E16A0546804604F13C0A7C
:101E700035B9204601F1010BFEF7F2FA18BB5946BD
:101E80006379022B10D10AEB05035A781AF8053052
:101E9000023553EA022308BF08F10108B9F101092C
:101EA000C5F30805E4D1D5E70AEB05000435FEF7D4
:101EB000F3F930F0704308BF08F10108EEE701269E
:101EC000C8E70226C6E70646C4E72DE9F0410F46FB
:101ED00098B002210546FEF717FB0446B0B918AECC
:101EE000394646F8605D3046FFF7F0F9044668B9B8
:101EF0009DF82B309A0601D41B0601D5062405E077
:101F00009DF8068018F0010F0DD00724204618B068
:101F1000BDE8F081024639463046FEF7CCFD044666
:101F20000028F3D124E007996879FEF711FA18F038
:101F3000100F074614D0EB699F42E6D021460CA84B
:101F40000C950E97FEF701FD04460028DED10146F0
:101F50000CA8FEF78BFE04460028D6D00428D5D165
:101F60003046FEF71FFF04460028CFD1002FD1D105
:101F70002846FEF72AFA0446C8E72DE9F04F0E4638
:101F800091B002210546FEF7BFFA0446002872D13F
:101F900010AF314647F8305D3846FFF797F90446F1
:101FA000002876D0042866D19DF83B1011F020015E
:101FB00071D10DF1400848F8405D4046FEF707FD3D
:101FC000064600285DD0012E59D0731C5C425C414E
:101FD0006CF02CFE8246002C55D131462846FEF787
:101FE000A0FD044600284ED14FF0203305F13C04FB
:101FF00005F105095146EB6305F152002B64C5F864
:1020000043302E2385F83C30102385F84730FEF707
:102010004BF9324621464846FEF7A9F905F15C0323
:1020200021461A4651F8040B994242F8040BF9D1A3
:102030002E234FF0010B069A484685F85D30FEF7D7
:1020400096F985F807B03846FEF780FF0446D0B908
:102050000B9851461630FEF727F932460B99484641
:10206000FEF785F910220B9B2846DA7285F807B037
:10207000FEF7ABF90446204611B0BDE8F08F02240C
:10208000A6E70724A4E7002231464046FEF713FDE9
:10209000F1E70824EFE70624EDE72DE9F0410C46CF
:1020A000A0B0022106469046FEF72EFA002871D114
:1020B00020AF214647F8606D3846FFF707F9002842
:1020C00068D19DF84B3013F0A00F70D10F9B6C4678
:1020D00003F120051868083353F8041C2246AB426C
:1020E00003C21446F6D13D4614AC0FCD0FC40FCD3C
:1020F0000FC495E80F0084E80F00414614A8FFF7CD
:10210000E5F8002849D0042844D114A8FEF71EFFA2
:1021100000283FD11B990DF10D030DF11D0001F1B8
:102120000D0253F8044B834242F8044BF9D118884E
:10213000012410809B7893709DF80B30DA0658BF0D
:1021400043F02003CB72F471CB7ADB061BD5169BD0
:102150000A9A9A4217D07079FEF7FAF8014630468B
:10216000FEF7AAF8014620B33046FEF779F988B9A0
:1021700096F85D302E2B06D1169A06F15C01701D83
:10218000FEF7F5F8F4713846FEF70CFE10B930464C
:10219000FEF71BF920B0BDE8F0810A9B169A9A421F
:1021A00003D10C9B189A9A42AFD00820F2E7062080
:1021B000F0E70220EEE70000F0B595B00746019188
:1021C0000221FEF7A1F90546002833D14FF0203354
:1021D00002AE044602937360C6F80730019B1B7879
:1021E0001F2B20D89DF80830E52B22D01CB1631E90
:1021F000F25C202A30D0002108A808970A91FEF747
:10220000A4FB0546B0B9012108A8FEF72FFD70BB5D
:102210000F9A1CB3334603CB1060516019889B782A
:10222000118193721CE001A8FEF782F8B0F5803F9F
:1022300003D30625284615B0F0BD86F023FD40F2F5
:10224000B51186F0EBFC0028F3D01D4A12F8013FCF
:1022500083B39842FAD1ECE71C46C7E7E523137035
:1022600001233846FB71FEF7B0F80546E2E7042883
:10227000FBD1002CDED0012108A8FEF7D4FC0546D6
:102280000028D7D1202201460F985EF0A9FA082233
:102290000F9BDA720F9ABDE7092CCAD814AB020A59
:1022A0002344013403F8482C14AB2344013403F8CD
:1022B000480C93E7FF28EFD80A2CF5D9B9E700BFFF
:1022C00060B20B082DE9F04F1C4600238FB0D0F808
:1022D00000804371154603790DF12F0203914046AA
:1022E0000521029300F026FB9DF82F30DF0700F157
:1022F000E6825E0700F1E5820CAA0321404600F069
:1023000019FB30B90C9A531EB3F5004F01D21A4293
:1023100001D001230C9345B1A5F50072894B9A4277
:1023200003D913200FB0BDE8F08F6A1E2A40F8D100
:10233000002C00F0C882189B5B0A059300F0C38252
:10234000029B002B00F09B8001232146404600F0B9
:10235000CDFA08B10120E5E794F8FF2194F8FE31A9
:1023600043EA02234AF65522934201D00E20D9E7D0
:10237000029B04EB031191F8B23101F5D771002BE8
:10238000F4D001F10800FDF787FF834601F10C004E
:10239000FDF782FF0D90DDF83490B9F1150FE5D906
:1023A0006A0A802ABDD8039B13F0020C06D003F002
:1023B0000703022B7BD0039BD80778D5039BD90753
:1023C000AFD502274FEA19334FF6F57E06934FEA51
:1023D000594308930C9B591E5B4209910793032FA5
:1023E0006BD1002A67D15849012631F8023F13B159
:1023F000089D9D425DD2B9FBF6F39D00A3F57F4396
:102400005249F63B05F207258B424FEA5525ADD8D8
:1024100000234FF0200A01930BEB0A030798032FC8
:102420000093019B05EB0301009B1944099B0B449E
:1024300003EA000308BF0098A3EB010305BFC0181F
:102440009A44ED18034608BF0093CBEB06131944DA
:1024500089458BD3A9EB0A030199032FA3EB05034D
:10246000A3EB0103B3FBF6F304934DD1734578D886
:10247000002A7FF47BAF76083FF478AF2BE20DAAF9
:102480000121404600F056FA00287FF463AF039B19
:1024900013F0080F0D9B0CBF4FF03F0B4FF0000BDC
:1024A0009B453FF663AFA3EB0B030D9373E7032745
:1024B00088E7760099E716469DE71ABB244901266E
:1024C00031F8023F13B1069D9D4219D2B9FBF6F5D2
:1024D00040F6F5734FF0010A9D424FF0200393BF81
:1024E00005EB450502350227012794BF01356D0034
:1024F00001939CBF6D08033505F2FF156D0A8BE74C
:102500007600DDE71646E1E7022F23D1049B7345F1
:102510000BD9002A40F0D9817600402E40F2DB81B1
:10252000BCF1000F40F0D58108E0049B40F6F57146
:102530008B4216D8002A7FF419AF7600802E3FF622
:1025400015AFC8E100FEFF008AB20B08FFFFFE0FC7
:102550007CB20B0840F6F573049A9A423FF606AF38
:1025600001274FF40072002120465EF039F9DB4B61
:10257000032F84F80EA01A68CAF3072A6673226034
:102580005A6884F80FA062601A899B7A22814FF002
:102590000202A3724FF0000322734FF00102E372B4
:1025A000637418BF0223B9F5803F2274A37480F0CE
:1025B0001D8184F81390C9F3072984F81490F82337
:1025C0004FF00009594604F11C0063753F2384F85D
:1025D00019902376FF2384F81B90A376FDF764FE01
:1025E000032F40F009816CF021FB014604F1430008
:1025F000FDF75AFE294604F12400FDF755FE02239B
:1026000004F1470284F82D9084F82C30012384F8DB
:102610002E9084F83030062384F82F9084F83230DE
:10262000802384F8319084F84030292384F8339053
:1026300084F84230AA4B03F1100153F8040B8B428B
:1026400042F8040BF9D119884FF0AA0A9B7840464A
:102650001180214693704FF0550384F8FFA15A462C
:1026600084F8FE31012300F050F9814600287FF400
:1026700071AE032F3FD101230BF1060221464046E4
:1026800000F043F94FF40072494620465EF0A8F886
:10269000522341227221237004F5F4706370612388
:1026A000E270A37084F8E731049B84F8E41184F8A5
:1026B000E511591E84F8E621FDF7F6FD02230BF122
:1026C0000702214684F8EC314FF0550384F8ED9170
:1026D000404684F8FE31012384F8EE9184F8EF91AE
:1026E00084F8FFA100F011F90123214640460BEBCD
:1026F000030200F00AF9189B0021204623F4FF7220
:1027000022F001025EF06CF8032F40F09280F82373
:102710002370FF236370A370E37023716371A3714F
:10272000E37123726372A3720F23E372059B214648
:10273000009A4046AB4228BF2B46994600F0E5F888
:10274000014600287FF406AE4FF4007220465EF08A
:1027500047F8009BB5EB09054B440093E6D1019B7C
:10276000032F08BF33460193019B2146059A40463B
:10277000934228BF1346009A1D4600F0C6F8002871
:102780007FF4E8AD009B2B440093019B5B1B0193FE
:10279000EAD1032F56D00D9BB3F5803F54D2022FC0
:1027A00014BF01250425029B002B4FD000220123DA
:1027B0002146404600F09AF8024600287FF4CAAD50
:1027C000029B04EB031383F8B251012321464046D8
:1027D00000F09BF800287FF4BDAD00224046114672
:1027E00000F0A8F8003018BF01209BE5494604F12D
:1027F0002000FDF759FDE2E66CF018FA014604F1FD
:102800002700FDF751FDC5F3072304F12B02A57541
:10281000E375802384F82430292384F82630314B53
:1028200003F1100153F8040B8B4242F8040BF9D169
:1028300009E7012F2C49204618BF6FF00701FDF76B
:1028400033FD73E70C25AEE70625ACE7039B1B07BA
:10285000C3D44FF400720299204601265DF0C0FFF8
:1028600055230D9A594684F8FE31AA235A4404F59B
:10287000E37084F8FF319DF8083084F8BF6184F874
:10288000BE3184F8C13143F6C16384F8C06184F875
:10289000C251B2FBF3F2FE2384F8C52184F8C331A0
:1028A000930843F03F0384F8C431FDF7FDFC0D9914
:1028B00004F5E570FDF7F8FC3346029A86E703203D
:1028C00030E50A202EE511202CE5BCF1000F3FF485
:1028D0004DAD16460327324681E500BF9AB20B087C
:1028E000A6B20B08BAB20B08F8FFFF0010B50C46F1
:1028F00011461A4638B1234604305CF09DFD003085
:1029000018BF012010BD042010BD10B50C461146A3
:102910001A4650B1234604305CF0DCFD10F11E0F66
:1029200005D0003018BF012010BD042010BD0220CA
:1029300010BD000070B50D4614460646002845D06F
:1029400001F00703224AD15C69B3002204305CF035
:102950001BFE062D3AD8DFE805F008050A163919DE
:10296000190006204AF074FD2060002070BD062882
:1029700005D14FF4007323802388B360F5E74AF054
:1029800067FD2080F8E701232360EEE7062801D0E9
:10299000430806D1336A002B0CBF042300232370A5
:1029A000E3E70123FBE7062D10D801A353F825F038
:1029B0006B2900086329000873290008872900088B
:1029C000CD2900089529000895290008042070BD2C
:1029D0005CCA0A08086853F0C8B8000037B51C463E
:1029E000043001AB1546FEF76CFF30B1054B1B5CA4
:1029F0004FF0FF30236003B030BD01988542FAD01C
:102A00001C23F5E79CCA0A0813B51C46043001AB29
:102A1000FEF7C7FE30B1044B1B5C4FF0FF30236064
:102A200002B010BD0198FBE79CCA0A082DE9F843E3
:102A30008146506890460F46002450F02FFC254AEE
:102A4000013810F8013FD3B92C203DF033FB064686
:102A5000054646F8047BD8F8000050F01FFC3146CC
:102A60000246E3B209F14400FEF7CCFD074640B34D
:102A700028463DF039FB184BD85D49F0E1FE722B3A
:102A800013D008D8612B19D0622B0CD02B2BD8D1A6
:102A900044F00304D5E7772B0AD0782B0BD0742BA6
:102AA00008BF1746CDE70D4FCBE744F00104C8E758
:102AB00044F00A04C5E744F00604C2E744F01204F7
:102AC000BFE7E30603D529693046FFF7A6F8284695
:102AD000BDE8F883ECCA0A089CCA0A08B0CA0A080A
:102AE00030B587B005460846114603AC1A46064B7A
:102AF0000194009303234AF097F9224629460020C7
:102B0000FFF794FF07B030BD84CA0A081FB506233B
:102B10000191029201AA03490393FFF787FF05B0D1
:102B20005DF804FBECCA0A0870B50C460546084679
:102B30004AF002FC2346024602492846BDE870409E
:102B400000F0C4BF78CA0A08022970B504461546C9
:102B50001E4613D15368012B0AD0022B0CD01BB98F
:102B60001168201DFFF759F8A3692B60002070BD84
:102B700081692B681944F4E70169FAE701290AD150
:102B80000430FEF75CFF0028F0D0084B1B5C33607C
:102B90004FF0FF3070BD042906D14368002BE5D00B
:102BA0000430FEF783FFEEE71623F0E79CCA0A081D
:102BB00007292DE9F74F9DF8305011D8012906D982
:102BC0003F23013000F8013C0023037001E000299D
:102BD000FAD1012994BF0020012003B0BDE8F08F95
:102BE00010EE904A002C25DAB4EE400BF1EE10FA0C
:102BF00020D6B1EE400B2D25441C0570B0EEC07BF5
:102C000002F0200C01905FFA8CF59FEDCF6BB4EED3
:102C1000467BF1EE10FA13DD85F04903E11C2370C9
:102C200085F04E0385F046056370A5700023081AF1
:102C30000B70D2E715B1441C0570DFE70446DDE7F1
:102C4000B4EE400BF1EE10FA08D745F04E0385F0D4
:102C50004105E11C23706570A370E7E7002B42F08B
:102C6000200201F1FF31A4EB0005B8BF0623672A5B
:102C7000A1EB050140F08E80B5EE400B002B08BFA4
:102C80000123F1EE10FA00F0C880B7EE007BB4EE3D
:102C9000C70BF1EE10FA40F1EE800026DFF8C0E23B
:102CA0004FF48077DFF8BC9235469FEDA96BB4EE08
:102CB000C60BF1EE10FAACBF4FF031084FF0300800
:102CC000BEEC025BB4EEC05BF1EE10FA06DD09EB80
:102CD000060A3D449AED005B20EE050B08367F1096
:102CE000482EEDD1B4EEC70BF1EE10FA40F1A680FC
:102CF000B4EEC60BF1EE10FAC0F29B80002DB7EED9
:102D0000000B0CBF2B272D27662A05D0672A40F021
:102D1000A880042D00F3A580672A84F8008004BFF2
:102D200005F1FF369B195E1CB142D8BF8B1E002BEC
:102D300040F08680662101341E461F460091662AB7
:102D400040F01581AE4280F26881F7B1632D4FF0FB
:102D50000A014CF0450C6770CABF6423A01CE01C3C
:102D600084F800C0C2BF95FBF3F33033A370044670
:102D700095FBF1F393FBF1F201FB135501FB1232CA
:102D80003035303204F8022B457000232370019B4C
:102D9000E01A22E7B5EE400BF1EE10FA7FF475AFC2
:102DA000662A3AD15D1C0027A942BE463D46D8BFDF
:102DB0008B1E66215E1C009123EAE373009965294E
:102DC00040F0B8805E1CB2EE046B4FF000084FF08C
:102DD0002E0A4645B3DDBDEEC07B04F1010917EEB6
:102DE000101A0029ABBF17EE101A302101F1300B79
:102DF0002170A8BF84F800B0F0454C4604D11BB147
:102E000009F1010489F800A0B8EEC77B08F10108B8
:102E100030EE470B20EE060BDBE75D1D009200262F
:102E2000A942D8BF8B1F652A73D03746B6463546B0
:102E3000C2E7B2EE047B013520EE070B2D2763E7D6
:102E40002E211E46023404F8011C3021013D62D0BF
:102E50001EB937464FF0FF3E42E004F8011B013E29
:102E6000F4E78E1FB34261DB672A56D0CB1F0026E2
:102E70000092B646A0E70026DFF8E8E04FF480773E
:102E8000DFF8DC803546BEEC027BB4EEC07BF1EEB1
:102E900010FA06D808EB06093D4499ED007B20EEB8
:102EA000070B08367F10482EEDD1FDEEC07B17EEE4
:102EB000906A092E04DD01359FED277B20EE070B7C
:102EC000662A10D18D4210DA5E190136B14203DC58
:102ED000491B8B1E00D54B1EEE18AE46002701364F
:102EE0006621009168E7652A08D18E1FB34200DB96
:102EF000CB1F00262B276521B646F2E7672A0ED1A5
:102F00005E1DB142D8BF8B1F9D420CDA691C5B1A53
:102F1000E2E72B278AE72F469CE73346A7E7009294
:102F200000262B27A5E767210091F9E700260092EC
:102F3000B64643E7009967297FF445AFA3B11E4623
:102F400041E700BFAFF30080FFFFFFFFFFFFEF7F10
:102F50001450FFFFFFFFEF3F9A9999999999B93F54
:102F6000686F0A08B06F0A08012633462BE7B1EEF6
:102F7000047BB4EEC70BF1EE10FA25DB661E4FF0B2
:102F8000300896F800E0BEF12E0F3BD0AEF13009CC
:102F9000B9F1090F29D9701C0678302E14D190F898
:102FA00001E0BEF12E0F31D1009966292ED02D2FD0
:102FB00080F800E0467027D1013D08BF2B2721464D
:102FC000884225D331210170672A7FF4BEAE002BE1
:102FD0003FF4BBAE23461C46013B14F8012C302ABB
:102FE000F9D02E2A08BF1C46AFE6BEF1390F05D036
:102FF0000EF1010E304686F800E0CDE7864286F8F5
:103000000080C9D0013EBCE70135D8E70134D6E7DE
:1030100011F8016C01F80169D2E7B1EE047BB4EE5E
:10302000C70BF1EE10FAA9DA8FE600BF08B5044627
:1030300031B1054B8A6B0360002309684CF05AFAE2
:1030400020463DF005F800BF3C800A082DE9FF4707
:103050001F4601924618002A34D10546B5422C4637
:103060003CD2207801353EF023F980460028F5D186
:1030700023782B2B2CD12C46311B204601AA00256E
:1030800047F02DFF0444A146B1454B4629D3B8F182
:10309000000F00D06D426D0045F00105A34209D03C
:1030A0001C46B442234645D2187801343EF000F95C
:1030B0000028F6D12249019A22484CF0DFF939461E
:1030C000FFF7B4FF023A222AC7D91F4849F0ECF9AA
:1030D0002D2B04BF2C464FF00108CDE74FF0000820
:1030E000CAE719F8012BA2F1300ABAF1090F09D980
:1030F0005F2AC9D042F02002A2F161011929C6D885
:10310000A2F1570A01998A45C1D2284656F0ECFB34
:1031100028B9019B03FB05A595EA4503B4D504A88E
:10312000019B4246311B40F8044D4DF0A7FB039B29
:103130000546B3E7BED1284604B0BDE8F08700BF1E
:1031400013700A082C810A08FE6F0A0800000000AC
:103150002DE9F04F2DED048B83B0914646180546BE
:10316000DDF840800193B5422C467FD220780135AE
:103170003EF09EF807460028F5D123782B2B0AD184
:103180002C46BA46B5420DD30022284611461346B6
:103190009FED919B7DE02D2B03D12C464FF0010A32
:1031A000F0E7BA46237843F02003692B31D1A31C02
:1031B0009E4240F20881637843F020036E2B40F07A
:1031C0000281A37843F02003662B40F0FC80E31DCE
:1031D000E51C9E421AD9E37843F02003692B15D1F0
:1031E000237943F020036E2B10D1637943F0200341
:1031F000692B0BD1A37943F02003742B06D1E3791B
:1032000043F02003792B01D104F108059FED748B65
:1032100014E06E2B2CD1A31C9E4240F2D480637824
:1032200043F02003612B40F0CE80A37843F02003CD
:103230006E2B40F0C880E51C9FED6B8BBAF1000F40
:1032400001D0B1EE488BAC4209D0B5422B4680F09C
:103250009C80187801353EF02BF80028F5D168499C
:1032600068484CF081F84146FFF7E0FE4FF0000A55
:103270000021B2EE045B27464FF00A0B0B460A46CC
:1032800008469FED559B9FED5A6BB74205D32046EC
:103290003C4625460446002750E097F800E07D1C98
:1032A000AEF1300CBCF1090F1CD8022806D1564FE4
:1032B000BB4201DC0BFB03C32F46E6E7B4EEC69B23
:1032C000F1EE10FA0BD507EE90CA0128B8EEE77BB5
:1032D000A9EE057BB0EE479B2DD10139ECE728B96B
:1032E0000131E9E720B9BEF12E0F03D10120E3E758
:1032F000022813D04EF0200CBCF1650F0ED1AE4267
:1033000003D978782B2804D1BD1CB542A7D0022060
:10331000D2E72D28FBD1BD1C0122F6E7B9F1000F41
:1033200004D04EF0200CBCF16A0F06D0BEF15F0F46
:10333000C2D03D46AFE70020BEE74F4602B15B4238
:103340000B4413F59A7F05DC03F233139FED2A7BC0
:1033500029EE079B03F11602152A0BD85B42B2EE49
:10336000040B01EE103AB8EEC11B60F0D5FE89EEF9
:10337000008B63E707EE903AB2EE040BB8EEE71B62
:1033800060F0CAFE29EE008B58E77FF468AF57B1B2
:10339000B0EE481B9FED100B03B0BDEC048BBDE8F5
:1033A000F04F4BF079B8019B23B1B0EE480B9FED85
:1033B0000A1BF1E7B0EE480B03B0BDEC048BBDE88F
:1033C000F04F4CF0B1B9BAF1000F3FF448AF2546C9
:1033D0009FED018B35E700BF0000000000000000FA
:1033E000000000000000F07F000000000000F87FF7
:1033F0005A62D7D718E774690DC6402C18FA310005
:10340000F86F0A082C810A086466660608461146A9
:1034100063F05CBE70B5054608460E465DF016FAD0
:10342000044620B102466B6831462868984720461A
:1034300070BD00002DE9F74F019191469DF83010C5
:1034400006460D9A11F0DF0FA2EB09023DD030299C
:103450000CA9244F0EBF4FF010080F464FF0010883
:1034600013F0800435D0022492FBF4F4151B002CD9
:1034700036DDA246D045C34673683946A8BFD34659
:103480003068AAEB0B0A5A469847BAF1000FF1DCF4
:10349000B9F1000F05D04C4473684A460199306871
:1034A0009847002D0DDD2C44A845C1467368394668
:1034B000A8BFA9463068A5EB09054A469847002DE4
:1034C000F2DC204603B0BDE8F08F074F4FF0100844
:1034D000C6E713F0010501D11446C8E71546D7E742
:1034E0000024D5E7DC5F0A08CB5F0A082DE9F0432A
:1034F00089B00746119D9DF84880139E42BB00226B
:103500008DF80F2051BB08AC302304F8013D15F0B5
:1035100040099DF80F303FD0002B46D00122CDF856
:1035200000802B460DF10F0101923846FFF782FF14
:10353000013E814608AA0196CDF800802B46121B59
:1035400021463846FFF776FF484409B0BDE8F083CE
:10355000002919DA2D2249428DF80F20109A08AC63
:103560000DF1100CA2F10A0EB1FBF3F003FB1012E7
:103570000146092ACCBF7244303204F8012D64455B
:10358000C5D00028F0D1C2E7A80701D52B22B7E7A4
:103590006A07B4D52022B3E7002BCBD004AA94420B
:1035A000C8D904F8013C013CC4E79946C2E70000D1
:1035B0002DE9F04F11F0010F91B0824688469146F7
:1035C0001A9D9DF86CB01C9F1D9E0ED111F0030F2B
:1035D00003D10A6883498A4207D04046059349F0DF
:1035E00037FF059B400040F0010815F0810206D12D
:1035F000BBF1300F03D1B742B8BF3746164640463D
:1036000005934DF050F8002808A9059B17DBAC077F
:1036100011D52B220DF121048DF82020EA061DD5AD
:10362000B9F1020F0DD13020224602F8020B581CCE
:103630006070144612E0680701D52022EAE70C46C4
:10364000ECE7B9F1080F40D1A8054FF03002227025
:1036500049BF03F10E02013462700234611A002284
:1036600015F0200F0CA80591DBB20CBF11462C21E0
:10367000012E227009904FF01000C8BF45F04005A0
:103680000B920A9015F040048DF81F2003910293CD
:1036900025D001924346CDF800900BAA0AA909A8AB
:1036A0004CF0CAFE037881462D2B72D10B9C012E63
:1036B00000F101098DF81F3004F1FF340B9400F381
:1036C0008D804FF00008444617E0B9F1100FC5D1C6
:1036D0003020224602F8020B03F11700A8E708ABDE
:1036E000CDF800900BAA0AA9019309A843464CF013
:1036F000A3FE012E814647DCA04669061BD59DF836
:103700001F3053B1012200230DF11F0150460192D9
:10371000013F0093FFF78EFE0444059B5BB101233C
:10372000059A08A95046019300230093FFF782FEF3
:10373000059B0444FF1A012EC8BF3746CDF800B0E0
:103740002B460B9A019749465046FFF773FE0444F7
:10375000B8F1000F0AD02023CDF80480224950464A
:10376000009300231A46FFF765FE044409980CAB4A
:10377000984201D03CF0B8FC204611B0BDE8F08F73
:103780004FF00008444619E00B9CB442B8BF3446E1
:103790000BE0012E95DD0B9C9DF81F30B442B8BFA5
:1037A000344603B10134059B1C44A742E8DD15F003
:1037B0000108A7EB040401D0A046002425F0010570
:1037C0004CB12023019408495046009300231A4627
:1037D000FFF730FE04464FF0300B8EE7B442B8BF1F
:1037E0003446DFE794860A0888DF0B082DE9F043AA
:1037F00016468BB080469946B207129F3DD416F00C
:10380000040F0CBF0023202300930A46139B2021A2
:1038100002A8FFF7CDF9F30504460DD5431C1F2B75
:103820000AD80AAA00211444252204F8202C0AAA46
:103830001C461A4402F8201C16F040051FD09DF8C3
:1038400008302F2B4FF000031BD8012202A9009350
:1038500040460192013FFFF7EDFD013C05460DF1A9
:10386000090101973346CDF8009022464046FFF704
:10387000E1FD28440BB0BDE8F0832B23C4E702A987
:10388000EFE702A91D46ECE72DE9F04F804689B02D
:10389000144600250E46334613F8012BD2B9B14227
:1038A00008D2771AD8F80430D8F800003A463D44D8
:1038B000984731460B78002B00F0FF8001314FF024
:1038C00020094FF0000B0F780E464A1C37B94FF015
:1038D000FF3245E0252AE2D01E46DCE72D2F03D13A
:1038E0004BF0010B1146EEE72B2F02D14BF0020BF0
:1038F000F8E7202F02D14BF0040BF3E7212F02D180
:103900004BF0080BEEE7302F1DD000274FF00A0ECA
:103910000E4611F8012BA2F13000092817D92E2AE2
:10392000D5D172782A2A16D000224FF00A0C0E4602
:1039300011F8010BA0F1300EBEF1090F10D80CFBED
:103940000202303AF3E74BF0400BB946CAE70EFBF0
:103950000727303FDCE722680236043422EAE272AD
:1039600031786C2908BF01363178002900F0A58034
:10397000642900F0838029D850292ED00ED8A1F1D7
:103980004500022840F28A80D8F8043001223146EE
:10399000D8F8000098470135A2464CE062293CD097
:1039A0004FD85829F0D14A1C21F00F0104F1040A24
:1039B000039702F006020F39CDF80890C9B2C2F1A0
:1039C0001003CDF804B00091002262E0712944D0C8
:1039D0000ED8672962D97029D6D1612304F1040A6F
:1039E000039700931023CDF80890CDF804B0EBE7CF
:1039F0007529D8D07829D6D07329C5D1531C04F1A4
:103A0000040A246803D120465CF020FF0246019797
:103A10005B46CDF80090214609E0226804F1040AD3
:103A200001975B46CDF8009042B1042225494046FB
:103A3000FFF700FD0544711C54462BE7052222497F
:103A4000F5E7226808A904F1040A5B4601F8042D91
:103A500001220197CDF80090E9E707A920680592B7
:103A60003DF0F5F9059A014604F1040A0197501C4E
:103A7000CDF800905B4608BF079AD8E7612304F1B0
:103A8000040A0122039700930A23CDF80890CDF889
:103A900004B021684046FFF729FDCBE707340192C7
:103AA00000974B4624F007045A46404604F1080AA2
:103AB00094ED000BFFF79AFEBCE7284609B0BDE87D
:103AC000F08F00BFC05F0A08C55F0A080EB403B5D7
:103AD00003AA52F8041B0192FFF7D6FE02B05DF86C
:083AE00004EB03B07047000085
:020000040804EE
:10000000024B1A690260186100207047F033002427
:10001000024B1A6912681A61704700BFF03300245E
:10002000C460056146618761C0F81C80C0F82090FB
:10003000C0F824A0C0F828B0C0F82CD080ED0C8BFC
:1000400080ED0E9B80ED10ABC0F808E0FFF7D8BF45
:10005000104A08B513690BB925F074FD196858608A
:1000600011611846C468056946698769D0F81C8023
:10007000D0F82090D0F824A0D0F828B0D0F82CD018
:1000800090ED0C8B90ED0E9B90ED10ABD0F808E04E
:1000900001207047F033002410B50021044600F021
:1000A00079FA18B914B120460CF0EAF910BD002114
:1000B00000F070BA10B50121044600F06BFA18B9CF
:1000C00014B120460CF0DCF910BDFFF7E5BF10B508
:1000D00001220C4600F0A6FB18B914B120460CF022
:1000E000CFF910BD00F09EBB00F02CBB2DE9F04312
:1000F00000252A4C0326D4F8107200210131431840
:100100009A0803F00303BA5C5B0042FA03F303F0BE
:100110000303022BF2D00901D4F81C328A0803EB46
:10012000001009B300EB820150F8043B1A0719D103
:10013000D4F81C22934215D39A1AD4F820724FEAAD
:10014000121EBB424FEA92120EF003030AD2D4F8F9
:1001500010C25B001CF8028048FA03F707F003079F
:10016000012F08D08142DFD1B5B1013D05F58A7379
:1001700034F81300BFE706FA03F33F2D05F58A793B
:1001800043EA08030CF8023003D824F819E00135DB
:10019000E8E7C4F82472E5E7BDE8F083F033002413
:1001A00021F00F03002170B51C1A164E164DE40005
:1001B000C5F82032A6FB0464C5F81002640AA3EB5C
:1001C000841306192246C5F81442C5F81C32C5F836
:1001D000186220F005FBA2000021D5F818020732B2
:1001E000D20820F0FDFA00234FF480314FF0FF32A7
:1001F000C5F8B432C5F8A812C5F8B022C5F8AC32BB
:1002000070BD00BFF32C23FAF0330024034AB2F888
:10021000A8320133A2F8A832704700BFF03300249F
:10022000034AB2F8A832013BA2F8A832704700BFD7
:10023000F0330024034BB3F8A802003018BF0120AC
:10024000704700BFF0330024F8B51C4D002203278F
:10025000B5F8A8322C1D05F5F876C5F8AC220133A7
:10026000C5F82422A5F8A83254F8043F1A0718D17B
:10027000D5F81C22934214D39A1AD5F820121009EB
:100280008B424FEA921200F003030AD2D5F810E233
:100290005B001EF802C04CFA03F101F003010129D2
:1002A00002D0A642E0D1F8BD07FA03F343EA0C03FB
:1002B0000EF80230FFF71AFFF3E700BFF033002417
:1002C00091B32DE9F0410E46051F0024174F4FF062
:1002D000030855F8043F01341A0718D1D7F81C2237
:1002E000934214D39A1AD7F8201210098B424FEA7E
:1002F000921200F003030AD2D7F810E25B001EF856
:1003000002C04CFA03F101F00301012903D0A64217
:10031000DFD1BDE8F08108FA03F343EA0C030EF8DD
:100320000230FFF7E3FEF2E7704700BFF03300242E
:100330002DE9F04F534E83B00025D6F81402D6F8BD
:100340002432800013B3C6F8245200284DD0002474
:1003500002E00134844215D2A208D6F8101204F04B
:1003600003038A5C5B0042FA03F303F00303032BED
:10037000EFD120460134FFF7B9FED6F81402800011
:100380008442E9D3D6F82432002BDCD168B39C46F2
:100390004FF0030A4FF002081D4606E0032B64D01D
:1003A000012B2DD0013585421FD2AF08D6F810E2BF
:1003B00005F003041EF807200EEB0701640042FA63
:1003C00004F303F00303022BE8D1BCF1000FE9D0E2
:1003D0000AFA04F401354FF0010C22EA04020A7013
:1003E000D6F8140280008542DFD3B6F8A832002286
:1003F000013BC6F8B422A6F8A83203B0BDE8F08FDE
:10040000D6F818024FEAD50B05F0070910F80BC013
:1004100000EB0B0E4CFA09F0C307D9D52A01D6F828
:100420001C1288580A44A0B11046B1216A460BF04C
:100430003DFA009A3AB10CF04BFA9DE803000CF03B
:100440001DFA0CF05BFAD6F8182202EB0B0E12F82C
:100450000BC0012303FA09F32CEA030C8EF800C049
:10046000D6F81032D919DA5DB2E708FA04F44FF081
:10047000000C22EA04020EF80720D6F814028000CD
:1004800090E700BFF0330024054B0021B3F8A82209
:10049000C3F824120132A3F8A822FFF749BF00BF16
:1004A000F03300243A4A0023D2F820129C462DE96A
:1004B000F047D2F81C429946D2F814629846091BBC
:1004C000D2F81052B6001C469E461A468360C3609E
:1004D00003614361836180E80A001946970802F0CE
:1004E0000303EF5D5B0047FA03F303F00303012B03
:1004F0003AD031D3022B02D10134013144600132B0
:10050000B2420CBF4FF0010A4FF0000A08D0970822
:1005100002F00303EF5D5B0047FA03F303F003030C
:10052000012B02D9BAF1000FD8D0012920D002291D
:1005300022D0494501D989468161012B02D0BAF107
:10054000000FCBD0E64502D9F446C0F80CE0B24229
:1005500016D04FF0000EC1E708F101080EF1010EB0
:100560001946C0F80880CAE7013419464460C6E756
:10057000076901370761DCE7476901374761D8E759
:1005800024014FEA081344608360BDE8F08700BF90
:10059000F03300240F302DE9F04706095BD0684D99
:1005A000B5F8A832002B56D1B5F8AA3201F00104F3
:1005B000002B0CBF4FF0010C4FF0000C50D1D5F8C0
:1005C000B412D5F81472B94238D2D5F810E200232B
:1005D0000EEB01001AE001339E4252D912F00C0FCB
:1005E0001ED101339E4240F2A28012F0300F1CD186
:1005F00001339E4240F29E8012F0C00F1AD10133A7
:100600009E4240F29A800131B94217D210F8012B74
:1006100012F0030FDFD012F00C0F4FF00003E0D008
:1006200012F0300F4FF00003E2D012F0C00F4FF085
:100630000003E4D001310023B942E7D3BCF1000F3D
:1006400009D12BF061FCD5F8B412D5F814724FF033
:10065000010C8F42B9D84FF0000A5046BDE8F08730
:10066000D5F8AC22D5F8B0329A42A8D32BF04CFC86
:10067000D5F8B412D5F814728F42ECD94FF0010CB2
:10068000A3E78900CA1A012B01F1010C02F101074D
:1006900048D0012007F003034FEA97080232834055
:1006A0001EF80890914200FA03F343EA09030EF89A
:1006B000083012D34FF0020802F003039008D5F877
:1006C00010E201325B001EF80090914208FA03F339
:1006D00043EA09030EF80030EED24FEA0718D5F8C6
:1006E0001C92D5F8AC32ACEB070209EB080A0021EA
:1006F0001E4412015046C5F8AC6220F071F8002C7F
:10070000ABD0D5F81812FA080020012307F007072C
:1007100049F8080003FA07F7885C074350468F54EE
:10072000BDE8F0874FEA9C03C5F8B432B1E7890011
:100730000131A7E789000231A4E789000331A1E76D
:10074000F0330024F0B51C4EB6F8A83293BB88B342
:10075000D6F81C320121D6F81872C01A0409C5094E
:1007600004F0070E83097A5D01FA0EF122EA010214
:1007700004F003017A55A508D6F8B4220327D6F869
:100780001002934238BFC6F8B432C25C490001344B
:1007900007FA01F304F0030122EA03024B00425579
:1007A000A508D6F81002425D42FA03F303F00303F2
:1007B000022BEBD0F0BD00BFF033002410F00F038C
:1007C0001AD1174AD2F81C12884215D330B4D2F885
:1007D0002042A04221D2401AD2F8104201098009D9
:1007E00001F00305225C68000241184602F0030292
:1007F000012A03D030BC70470020704701300B182D
:100800009A0803F00303A25C5B0042FA03F303F0CF
:100810000303022BF2D00001ECE7184630BC70470E
:10082000F03300248C46002800F00D812DE9F84FAC
:10083000884DB5F8A832002953D0002B52D1D5F8F5
:100840001C4201F10F06D5F814129E46A0EB0409D4
:10085000360989004FEA19177C1CA14240F2F78043
:10086000D5F810A24FF001084FEA940B04F00303EF
:100870001AF80BB05B004BFA03F303F00303022BEF
:1008800034D02BB90EF1010E0EEB08039E422FD887
:1008900046454FD030D3C6440446764500F28180A9
:1008A00007EB08023744974211D94FF0020C02F0CF
:1008B00003039108D5F8100201325B0010F801E043
:1008C00097420CFA03F343EA0E034354EFD1A6EB2D
:1008D000080204EB08100021274612011FF080FFD8
:1008E00001E05BB300273846BDE8F88F08F1010846
:1008F0000134A142B8D1CBE73E444FF0030C47444A
:10090000344604F003034FEA940ED5F81022013464
:100910005B0012F80E10BC420CFA03F321EA030349
:1009200002F80E30EDD1B608D5F8B4329E4238BF89
:10093000C5F8B46207463846BDE8F88FD5F81C12F2
:100940000122D5F818624FF0030E401A0409C109BC
:1009500004F007078009735CBA40A70823EA020382
:10096000735404F00301D5F8B432D5F810629842FC
:1009700038BFC5F8B402325C490001340EFA01F305
:1009800004F0030122EA03024B00F255A708D5F850
:100990001062F25D42FA03F303F00303022BEBD083
:1009A000A0E74FEAD919D5F8183207F0070713F86E
:1009B00009103941002A95D001F001016046FFF786
:1009C000E9FD074600288DD04FEA081221461FF0A6
:1009D000C3FEB5F8A832002B85D1D5F81C02012141
:1009E000D5F818E2201A0609C40906F0070C830995
:1009F0001EF8042001FA0CF122EA010206F00301BC
:100A00000EF80420B408D5F8B4224FF0030ED5F840
:100A10001002934238BFC5F8B432C25C49000136B7
:100A20000EFA01F306F0030122EA03024B0002551D
:100A3000B408D5F81002025D42FA03F303F0030391
:100A4000022BEBD04FE701466046FFF7A3BD4FF006
:100A500001081DE7F033002430B58BB00B4C03A820
:100A6000FFF720FD059D049B2046039A0849009549
:100A7000C3F72CF809992046069C089B079A8DE835
:100A800012000449C3F722F80BB030BDB85F0A0862
:100A9000B0FB0908D4FB09082DE9F047564E574929
:100AA000D6F81C225648C3F711F8D6F81402800075
:100AB00000F088800024DFF88091DFF88081504FBB
:100AC0001DE004F003054FEA940A6D00D6F81032D9
:100AD00013F80A3043FA05F505F00305022D6FD02F
:100AE000032D6BD0012D44D02E2246493846C2F743
:100AF000EDFFD6F8140201348000A04262D9A506A9
:100B0000DFD1844268D2D6F810E24FEA940A04F0AA
:100B100003051EF80A306D002B41990722D12346A8
:100B200005E01EF8011041FA02F2920708D10133E4
:100B300003F0030283424FEA93014FEA4202F0D1ED
:100B40001A1B7F2A0ED992092F49384623F03F04F9
:100B5000C2F7BCFFD6F81432B4EB830F32D24FEA9F
:100B6000940A002509EA041241463846C2F7AEFF4E
:100B7000ACE7D6F81C2223012449D2588A4227D058
:100B8000234B9A4226D0234B9A422BD0224B9A4297
:100B90002AD0224B9A4227D0214B9A4226D0214B71
:100BA0009A4223D0204B9A4222D0204B9A4221D005
:100BB0001F4B9A4214BF68224D2296E76D2294E79C
:100BC0003D2292E71B490E48BDE8F047C2F722BC20
:100BD00054228AE74C2288E704F003054FEA940A7E
:100BE0006D00BFE7442280E753227EE741227CE785
:100BF00046227AE7422278E7F033002468FB0908AE
:100C0000B85F0A08ACFB090888FB0908F8960A08CF
:100C100000880A08587A0A08B0910A0860940A08FD
:100C2000D0750A080C760A0840820A08D0820A08A1
:100C3000DC890A0884FB0908F0FF0F00A4FB0908FF
:100C4000054B5B695A68824204D8801A043053F815
:100C5000200070471B68F5E7F0330024014441F29F
:100C60000553884204D398B2002808BF012070477A
:100C700003EB431310F8012B5340F2E7034B044AF4
:100C80005A610022C3F8F421704700BFF0330024FA
:100C9000D4080B082DE9F84F82468946FFF7DEFF9E
:100CA000134B83465C6914B92046BDE8F88F04F104
:100CB0001007E6683D4607EB8606B54201D3246877
:100CC000F1E7A84658F8040B03889B450ED18378BA
:100CD00099450BD14A46514603301FF095FD28B97E
:100CE000ED1B606800EBA500BDE8F88F4546E4E722
:100CF000F03300242DE9F04780460E46FFF7CAFF87
:100D00000246002840F08180FF2E03D94049414827
:100D10000AF044FE404C351DD4F8F401A0B1D4F8DB
:100D2000FC31D4F8F8112B448B420DD92944FFF73C
:100D3000D9F90746F0B90246D4F8FC11D4F8F40109
:100D4000FFF7D0F9C4F8F471D4F8F431F3B9802D79
:100D50002F4638BF80273846FFF7A9F9C4F8F401B9
:100D600078B92846FFF7A3F9C4F8F40140B928463A
:100D70000BF086FBD4F8F8312B44C4F8F831E3E7E4
:100D80002F460023C4F8F871C4F8FC31D4F8FC9164
:100D90003146D4F8F4A140464D440AEB0907C4F8A3
:100DA000FC51FFF75BFF0AF80900000ABE703246EB
:100DB00041463E444FF000087870F81C1FF0CCFC10
:100DC00086F8038063699D68DB68AB4213D36D00CE
:100DD0000A2D38BF0A25281D8000FFF768F9002872
:100DE000C5D0626953680260D26885601344C0F858
:100DF0000C80436060616369D9685A68481C04319B
:100E0000013AD860024443F821701046BDE8F087EB
:100E10007B190A08887F0A08F033002410B50446BD
:100E20001FF014FD01462046BDE81040FFF762BFE9
:100E300008B5FFF705FF008808BD08B5FFF700FFFC
:100E4000807808BD08B5FFF7FBFE033008BD08B584
:100E5000FFF7F6FE837803300B6008BD2DE9F843F9
:100E60001D46002307468846036016460B60136044
:100E70002B60164BDFF858905C690CB14C4505D1DE
:100E80002B68326813442B60BDE8F8833B6801335C
:100E90003B60E268D8F800301344C8F8003004F131
:100EA0001003E26803EB8202934207D32046FFF768
:100EB00085FC2B68246818442860DEE753F8041B7F
:100EC00088783168043101443160EDE7F033002463
:100ED000D4080B082DE9F8430E4B0F4F5C69DFF87F
:100EE0003C80DFF83C900CB1BC4201D1BDE8F883F6
:100EF00004F11005E36805EB8306B54201D32468CD
:100F0000F1E755F8042B414648460332C2F7DEFDAF
:100F1000F3E700BFF0330024D4080B0874190A0863
:100F2000B85F0A08F0B5013100232025194E0A7870
:100F30000AB90270F0BD120622D50BB1057001305E
:100F40000A78334602F07F026AB9013B044613F87F
:100F5000012F601C12F0800F0ED002F07F020123DF
:100F600022700131E3E71C46013394F90070002F31
:100F7000F9DA013AD2B2E7E7044600F8012CE6E7D5
:100F8000012B04BF057001300B78013000F8013CE3
:100F90000223E6E7ECFC090838B544680546036817
:100FA0000C449C4210D9037BDB0703D50021074882
:100FB0000AF0F4FC1034806824F007040834214659
:100FC000FFF785F82C60A86038BD00BF887F0A084D
:100FD00070B504460E4611461546FFF7DDFFA068C2
:100FE00063682A46314618441FF0E4FB62682A44CD
:100FF000626070BD70B5466804468E42354628BFB3
:101000000D460121FFF7C8FFA368681C721B591920
:1010100018441FF0CFFB6368A06801332844636065
:1010200070BD38B504460025002914BF08460120CC
:1010300065602060FFF730F8237BA06065F3000354
:10104000237338BD38B505460C460131FFF7E9FF7B
:101050006C6038BD0023016082604360037B43F015
:10106000010303737047000038B514460546FFF7C7
:10107000D8FF024B2560636038BD00BFD10F040864
:10108000037BDB0710B5044602D48068FFF72CF819
:101090000023A36010BD38B505461020FEF7FCFF05
:1010A00004462946FFF7BDFF204638BD10B504466B
:1010B00050B1037BDB0702D48068FFF715F82046A8
:1010C000BDE81040FFF710B810BD000038B5037B35
:1010D00004460D46DB0703D5002107480AF05EFCF5
:1010E000016880682944FEF7F2FF2368A0601D4470
:1010F0001844256038BD00BF887F0A0838B504460B
:101100000D46FFF749FF6368A0681D4418446560F9
:1011100038BD90E80C0010B59A42044602D1012176
:10112000FFF7D4FFA26800216368D154A06810BD06
:1011300010B50C460121FFF7E1FF047010BD7F29B7
:10114000F8B50D4604D80121FFF7D8FF0570F8BDAA
:10115000B1F5006F4FEA911401F03F0609D264F037
:101160003F0466F07F060221FFF7C8FF0470467057
:10117000F8BDB1F5803F4FEA11370ED204F03F04BD
:1011800067F01F0766F07F06032164F07F04FFF716
:10119000B5FF077044708670F8BDAD0C07F03F07CF
:1011A00004F03F0466F07F0665F00F0567F07F07E7
:1011B00064F07F040421FFF7A1FF0570477084707D
:1011C000C670F8BD38B505460C4608461FF03EFB14
:1011D000214602462846BDE83840FFF7F9BE10B563
:1011E0001446FFF707FF047010BD10B51446FFF753
:1011F00001FF047010BD43688B4234BF00235B1AAB
:101200004360704738B51546426804460B468A422B
:101210000ED929448A4201D8436038BD8068D21A69
:101220000144521B18441FF0C5FA6268521B6260E9
:1012300038BD03781A060AD503F07F034022134213
:1012400007D110F8012F02F0C001802905D01846FF
:10125000704723EA02035208F1E702F03F0242EA34
:101260008313EEE7421C10460132037803F0C003FB
:10127000802BF8D070470023814201D81846704770
:1012800011F8012D02F0C002802A18BF0133F3E7E4
:1012900001440346002099421A4600D8704712784C
:1012A000013302F0C002802A18BF0130F3E70000CA
:1012B0007F289DBF024B185CC0F3400000207047A0
:1012C000ED5F0A087F289DBF024B185CC0F3C00089
:1012D00000207047ED5F0A087F289DBF024B185C15
:1012E000C0F3800000207047ED5F0A087F289DBF93
:1012F000024B185CC0F3801000207047ED5F0A08B5
:101300007F2809D8064B1B5C13F00C0F06D1A0F107
:101310005F035842584170470020704701207047D2
:10132000ED5F0A087F289DBF024B185CC0F30010D8
:1013300000207047ED5F0A087F289DBF024B185CB4
:10134000C0F3401000207047ED5F0A0808B5024660
:10135000FFF7E8FF00B12032104608BD08B502468D
:10136000FFF7EAFF00B1203A104608BD30380928DF
:1013700084BF20F020000738704710B501440246B2
:10138000E5240020914203D8B0FA80F0400910BD56
:1013900012F8013B30B103F0C003802B11D10138AA
:1013A000C0B2EFE7BF2B09D9F72B09D8DB0803F050
:1013B000060344FA03F303F00300E3E71B06E1D559
:1013C00010BD0020FCE7023981420B4603D31A8886
:1013D0000239002AF8D00233181A4010704770B54D
:1013E0001C09944216D2121B01EB440103F00F03B7
:1013F00015460E46012D31F8024B18BF3468013DE9
:1014000024FA03F4A4B220F8024BF2D104B9013A51
:10141000104670BD0022FBE7F0B5059C0025121BAD
:101420002E46AC420FD164000519023C2F460C44F5
:10143000114699B905EB420316B1023325F8126043
:10144000181A4010F0BD31F8157033F815E07744E4
:101450003E4420F81560360C0135E2E734F8023FCF
:1014600001391E4427F8026B360CE2E7F0B4049C05
:101470000025121B2F46AC420BD164001346051900
:10148000023C0C4429467BB905EB4201F0BCFFF756
:101490009ABF31F815603E4433F81570F61B20F8FA
:1014A000156037140135E6E734F8026F013B3E441E
:1014B00021F8026B3714E6E72DE9F043079C551E2F
:1014C000089F0239099E8646DDF828C04FF6FF784E
:1014D000A4EB02096C1C09D100EB420117B10231E7
:1014E00020F81270BDE8F043FFF76DBF31F8024FEE
:1014F0004444264409EB0504A54205F1FF3529BF04
:101500001C884FF6FF7402334444644486EA040C9A
:10151000360C17FA8CF74FEA144C2EF8027B3F0C6E
:10152000D8E710B5044638B18068FEF7DDFD2046E7
:10153000BDE81040FEF7D8BD10BD022938B538BF50
:101540000221044680680D4618B12368B1EB930F61
:1015500007D96900FEF7BBFD2368A06065F39F0310
:10156000236038BD38B505460C20FEF795FD03789D
:101570002A78044662F300036FF34103037028687E
:101580002368C0F39D0060F39F03400023606B68F5
:101590006360FEF781FDA0602A68A968C2F39D021E
:1015A00052001FF0D9F8204638BD4B0018441A44A9
:1015B00010B509B9084610BD30F8023D32F8024DA9
:1015C0001B1B002B02DB04D10139F2E74FF0FF3087
:1015D00010BD012010BD38B505460C460221FFF7AD
:1015E000ACFF002C2B78BBBF644243F001036FF3C8
:1015F00000032B70A8BF2B7000236B6004B938BDAB
:101600006B68AA68581C686022F81340240CF5E740
:10161000037803F0FE036FF34103037003686FF375
:101620009F030360002343608360704728B1037801
:101630009B0702D48068FEF757BD704738B5054652
:101640000C464968FFF779FF22782B78A86862F387
:1016500000032B706368A1686B606268BDE8384066
:1016600052001FF079B8034609B959607047FFF777
:10167000B2BF08B5FFF7CCFFBDE80840FFF7F3BFE6
:1016800030B405788160194605F0FE0545F0020585
:101690000570056862F39F0500220560426030BC5A
:1016A000FFF7E1BFF8B504469DF8185004211F4626
:1016B0001646FFF742FF23787DB1002E77F1000236
:1016C0000BDA764243F0010367EB470723700021F2
:1016D000616056EA070304D1F8BD6FF3000323707D
:1016E000F5E76168A0684D1C656020F81160310C59
:1016F000380C41EA074107460E46EAE72DE9F84F64
:1017000053EC102BD90F0278814610EE105A61F37A
:101710000002027047F6F07212EA134104D100236E
:10172000C9F80430BDE8F88F9142F8D0C3F30A54E9
:10173000A4F2FF32002AF2DB04D10121BDE8F84F08
:10174000FFF749BFA4F2EF381021C3F31307332A80
:101750002E4647F4801798FBF1F830DC2846002528
:101760003946C2F134025EF04BF82C4606460F466D
:1017700041464846FFF7E1FEC9F804802CB16200FB
:101780000021D9F808001FF02BF89DB1D9F808B056
:101790002A463046394604F1010A5EF03DF83946E2
:1017A0002BF81400C5F1100230465EF029F85446BB
:1017B00006460F466300444509D1BDE8F88F0C3258
:1017C000A4F2334402F00F0594FBF1F4D0E7D9F80A
:1017D0000820390C0134D652320C023342EA074257
:1017E0000F461646E7E72DE9F8438F18C2F35B0270
:1017F000044698460D46511C089EFFF79EFE22782F
:10180000B8F1000F0BD042F0010200232846B1B21C
:1018100022706360B84205D3401BBDE8F88368F3CB
:101820000002F2E7027800F1010EA2F13003092B69
:1018300005D9A2F14103192B15D8A2F13703B34200
:10184000EAD2A0689BB2D4F804C0804662468AB946
:1018500000EB4C0213B1023220F81C30121A704611
:1018600052106260D6E7A2F16103192BD4D8A2F11D
:101870005703E4E7B8F80090013A09FB013328F870
:10188000023B1B0CE3E7F8B5044615461E46C1B102
:10189000531E4FF0FF371E44E90020460F3109095F
:1018A000FFF74BFE237800216FF300036160237084
:1018B0004DB9A068616800EB4101FFF784FD6060ED
:1018C000F8BD0127E8E700230F290ADC3278013D43
:1018D0003E4402FA01F201F1080143EA02039BB21D
:1018E000F2D162681039501C6060A06820F8123094
:1018F000DEE70A46416838B5044609B9506890B138
:101900001378257803F0010305F00100181A0AD1B5
:101910005368994208D30AD89268A068FFF745FE39
:10192000EB0748BF404238BD4FF0FF30F8E70120D9
:10193000F6E7884210B5044601D0FFF77FFE237812
:101940006FF30003237010BD884210B5044601D028
:10195000FFF774FE2378C3F30002C2F1010262F3C1
:101960000003237010BD88421FB5044601D0FFF765
:1019700065FE626862B901212046FFF7DEFD0123A2
:10198000A26813806360237843F00103237010E0A2
:101990002378D9070FD56FF30003A16823700123C3
:1019A0000846ADF80E3000930DF10E03FFF75EFD13
:1019B000606004B010BD511C2046FFF7BEFD01233E
:1019C000A168ADF80E30009308460DF10E03626871
:1019D000FFF722FD6060D6E72DE9F0470F46496822
:1019E0000646154601B12AB939463046BDE8F047EA
:1019F000FFF724BE02F10F0424092144FFF79DFDE7
:101A000079686FF0004E15F00F0204EB01086FF0DB
:101A1000010CB36808BF102208EB0E050CFB01FC9B
:101A20008E44B8686D00C2F110020CEB4E0E2B44D0
:101A300070444FF0000E994609BB2EFA02FE03EBEC
:101A40000C0904F10042023523F80CE06300013A6E
:101A5000C3F10203520099444846A9441EF0C0FE57
:101A6000B8F1000F02D039F8023DA3B13378C6F8BF
:101A700004803A7862F300033370BDE8F08730F8F1
:101A800011A001394AEA0E0E2EFA02FA4FEA0E4E62
:101A900029F802A9D0E708F1FF38E1E7F0B50E46D2
:101AA000496885B00546144601B12AB93146284631
:101AB000FFF7C4FD05B0F0BDFFF73FFD2346726898
:101AC000B168A868FFF78BFC2B7868600246317814
:101AD00061F300032B70DB07ECD50023210970684C
:101AE000ADF80E30834202D08B4213D103469942A7
:101AF000E0D2B36804F00F0433F81110012303FAA5
:101B000004F4013C214218BFADF80E30BDF80E3090
:101B10004BB9CFE7B76837F813707FB10123814223
:101B2000ADF80E30E5D30123A9684AB10093084609
:101B30000DF10E03FFF770FC6860BBE70133D1E7DE
:101B40000B806B60B6E773B553680C464968064670
:101B50001546994206D308D89268A068FFF725FD7C
:101B6000002802DA23462C461D4623782A7861682D
:101B70005340DB0713D401313046FFF7DEFC6B68BE
:101B8000B0680093AB686268A168FFF745FC3378E2
:101B90007060227862F30003337002B070BD30468B
:101BA000FFF7CBFC6B68B0680093AB686268A16814
:101BB000FFF75CFCEBE7F7B553680C46496806464F
:101BC0001546994206D328D89268A068FFF7EDFC25
:101BD000002822DA234601272C461D4623782A783E
:101BE00061685340DB071AD501313046FFF7A5FC89
:101BF0006B68B0680093AB686268A168FFF70CFC83
:101C00007060337822781FB1C2F30002C2F1010282
:101C100062F30003337003B0F0BD0027DEE7304607
:101C2000FFF78BFC6B68B0680093AB686268A168D3
:101C3000FFF71CFCE4E72DE9F04F16464A680C4616
:101C400085B0736805469A423EBF0B4634461E4631
:101C50002378DA0723D4337813F001071FD16168A2
:101C6000FFF76BFCA868A4683B46D6F808E07168EB
:101C700099420BD100EB4101FFF7A5FB2B7868607F
:101C80006FF300032B7005B0BDE8F08F34F813201C
:101C90003EF81360324020F813200133E8E7616812
:101CA00028460131FFF749FC22783178D4F804E066
:101CB00082EA010302F0010201F00101A868DB439E
:101CC000D6F80880C1F1000C814603F001031FFA29
:101CD0008CFC5F420093A368BFB2A3F1020A736851
:101CE00002975742A3EB0E03BFB2039301970EF185
:101CF000FF377B1C14D1009B00EB4E011BB101236D
:101D0000023120F81E30FFF75EFB686032782378DE
:101D1000C2F3000213402A7863F300022A70B2E78C
:101D20003AF802BF019B8BEA030B039B5A4403EB77
:101D3000070B029BBB4507F1FF3797BFB8F800B010
:101D4000E34608F102088CEA0B0B594402EA010B46
:101D5000090C120C8BEA030B009B13FA8BF329F886
:101D6000023B1B0C0093C4E72DE9F84F17464A6865
:101D70000C4606467B689A423EBF0B463C461F46D1
:101D80002378DA0731D43B7813F001052DD161684F
:101D9000FFF7D3FBA1687A682B466468B068D7F870
:101DA00008E0A41A9A4211D152008318023A1D4643
:101DB0000A44214699B903EB44031B1A5B10736074
:101DC000337861F300033370BDE8F88F31F81350B6
:101DD0003EF813703D4320F813500133E2E732F828
:101DE000027F013925F8027BE4E7616830464FF055
:101DF00001090131FFF7A1FB257897F800E005F014
:101E0000010561680EF0010E7B68B068C5F100083D
:101E1000CEF1000CA4681FFA88F84A1E1FFA8CFC49
:101E2000023CBF688246A3EB010B531C08D100EBB8
:101E30004101FFF7C8FA3378706043F00103C2E74D
:101E400034F8023F83EA08031D440BEB020393427C
:101E500002F1FF3297BF3B88634602378CEA0303E7
:101E60009E4445EA0E034FEA1E4E2D0CDB4319FA41
:101E700083F32AF8023B4FEA1349D6E7F0B516463A
:101E80004A680C4685B0736805469A423EBF0B46C9
:101E900034461E462778616833785F4017F00107A3
:101EA0003BD1FFF74AFB237813F0010329D1726875
:101EB0006168A868A768891AD6F808E09A4211D123
:101EC00052000B468418023A26463A449BB904EB6A
:101ED0004101FFF778FA2B7868606FF300032B70ED
:101EE00005B0F0BD37F813403EF81360744020F899
:101EF00013400133E2E732F8027F013B26F8027B10
:101F0000E4E70397029701977368A8680093B368A2
:101F10006268A168FFF7D0FADDE70131FFF70DFB3A
:101F20003378A868DB4303F0010303932378DB4392
:101F300003F0010302930123019373680093B368D4
:101F40006268A168FFF7B8FA2B78686043F0010374
:101F5000C5E74B682DE9F04F044685B00E4615469F
:101F60000BB1536823B90023636005B0BDE8F08F5F
:101F7000814207D1FFF7F6FAB542074600D1054680
:101F80003E4605E082422DD1FFF7ECFA07460546B2
:101F90006B68204671681944FFF7CFFA2268002168
:101FA000A068C2F39D0252001EF01AFCB368D6F876
:101FB00004E00020D4F808A002936FF00103D5F8E4
:101FC00008800AEB4E0103FB0EF36A680393039B40
:101FD00003EB010C42B3029BCDF804E0A3F102092C
:101FE000002310E00027D3E739F8020FB8F800B05B
